:100000000C9462000C947F000C947F000C947F0091
:100010000C947F000C947F000C947F000C947F0064
:100020000C947F000C947F000C947F000C947F0054
:100030000C947F000C947F000C947F000C947F0044
:100040000C9414030C947F000C947F000C947F009C
:100050000C947F000C947F000C947F000C947F0024
:100060000C947F000C947F00000000002400270007
:100070002A0000000000250028002B0000000000DE
:1000800023002600290004040404040404040202DA
:100090000202020203030303030301020408102007
:1000A0004080010204081020010204081020000012
:1000B0000008000201000003040700000000000027
:1000C0000000350511241FBECFEFD8E0DEBFCDBF45
:1000D00021E0A0E0B1E001C01D92A536B207E1F732
:1000E00010E0C2E6D0E004C02197FE010E94910515
:1000F000C136D107C9F70E945E030C94CD050C945C
:100100000000833081F028F4813099F08230A9F02A
:1001100008958730A9F08830C9F08430B1F4809117
:1001200080008F7D03C0809180008F778093800056
:10013000089584B58F7784BD089584B58F7DFBCFF6
:100140008091B0008F778093B00008958091B000C7
:100150008F7DF9CFCF93DF93282F30E0F901E2555F
:10016000FF4F8491F901E656FF4FD491F901EA5708
:10017000FF4FC491CC23A1F081110E948100EC2F8C
:10018000F0E0EE0FFF1FE458FF4FA591B491EC9102
:10019000ED2381E090E009F480E0DF91CF910895B4
:1001A00080E090E0FACF1F93CF93DF93282F30E0C9
:1001B000F901E255FF4F8491F901E656FF4FD491C2
:1001C000F901EA57FF4FC491CC23A9F0162F8111F2
:1001D0000E948100EC2FF0E0EE0FFF1FEE58FF4F62
:1001E000A591B4918FB7F894EC91111108C0D095F6
:1001F000DE23DC938FBFDF91CF911F910895DE2B1B
:10020000F8CFCF93DF93EC0180915301909154018B
:10021000029749F4C130D10509F43BC06CF560E0A8
:10022000209709F437C080915301909154010497AD
:1002300049F4C130D10509F45CC00CF037C02097F7
:1002400009F442C08091530190915401059709F03F
:10025000E5C0CA30D10508F0E1C0FE01EE5CFE4FFA
:100260000C94910591019D01AE01C401DF01E101F2
:10027000E801F40105020C02C230D105A9F060E0EA
:10028000C330D10581F6809157010E94D30060E010
:1002900006C061E0809157010E94D30061E0809127
:1002A00059010E94D300BFCF61E0EDCFC230D1052C
:1002B00039F1C330D10509F0C5CF61E08091570114
:1002C0000E94D30060E022C061E0809157010E944B
:1002D000D30060E0809159010E94D30061E08091D9
:1002E0005B010E94D30060E080915D010E94D30019
:1002F000A9CF60E0809157010E94D30061E0EACF6E
:1003000060E0809157010E94D30061E08091590123
:100310000E94D30060E080915B010E94D30061E005
:10032000E3CF60E0809157010E94D30061E08091AB
:1003300059010E94D30061E00BC060E08091570139
:100340000E94D30061E0809159010E94D30060E0D7
:1003500080915B010E94D30060E010C060E080915A
:1003600057010E94D30061E0809159010E94D3009F
:1003700060E080915B010E94D30061E080915D01AB
:100380000E94D30061E015C060E0809157010E9497
:10039000D30061E0809159010E94D30060E0809118
:1003A0005B010E94D30061E080915D010E94D30057
:1003B00060E080915F01DF91CF910C94D30061E008
:1003C000E4CF61E0809157010E94D30060E0E2CF6A
:1003D00061E0809157010E94D30060E08091590153
:1003E0000E94D30061E0DBCF61E0809157010E9461
:1003F000D30060E0809159010E94D30061E08091B8
:100400005B010E94D30060E0CFCF61E08091570193
:100410000E94D30060E08BCF60E0F8CFDF91CF91F6
:1004200008950F931F9381E090E090934C01809387
:100430004B013FB7F8948091470190914801A091FA
:100440004901B0914A0126B5A89B05C02F3F19F07C
:100450000196A11DB11D3FBFBA2FA92F982F882744
:10046000820F911DA11DB11D42E0880F991FAA1F87
:10047000BB1F4A95D1F74091610150916201609193
:100480006301709164018C019D01041B150B260B07
:10049000370B40914D0150914E0160914F01709189
:1004A0005001041715072607370718F280936101DA
:1004B00090936201A0936301B09364018091550110
:1004C0009091560120914B0130914C012130310522
:1004D00049F1892BF1F080915501909156010197D6
:1004E000909356018093550180915501909156014A
:1004F000209153013091540164E070E025303105C2
:1005000011F46AE070E00E945E051F910F910C9457
:100510000101809151019091520190935601809375
:100520005501D9CF019690935601809355012091A2
:1005300051013091520182179307B1F61092560182
:1005400010925501D1CFCF93DF9390E0FC01E65696
:10055000FF4F24918A579F4FFC0184918823D1F04B
:1005600090E0880F991FFC01E859FF4FA591B491C5
:10057000FC01EE58FF4FC591D491623071F49FB7E2
:10058000F8943C91822F809583238C93E8812E2BC5
:1005900028839FBFDF91CF9108958FB7F894EC9196
:1005A0002E2B2C938FBFF6CF0F931F93CF93DF93F8
:1005B000EC01862F1B861A86198218821E8A1F8AD2
:1005C000188E198EE4E6F0E0FF83EE836C877D875A
:1005D0005F874E87398B288B1B8B0A8B61E00E94CB
:1005E000A30261E08E850E94A30261E088890E94D7
:1005F000A30261E08A890E94A3021D8A1C8A84E00A
:1006000090E099878887DF91CF911F910F9108958E
:100610002FB7F89460914301709144018091450196
:10062000909146012FBF08951F920F920FB60F921F
:1006300011242F933F938F939F93AF93BF938091F8
:10064000430190914401A0914501B0914601309140
:10065000420123E0230F2D3758F50196A11DB11D4E
:10066000209342018093430190934401A09345015C
:10067000B09346018091470190914801A0914901B2
:10068000B0914A010196A11DB11D8093470190933D
:100690004801A0934901B0934A01BF91AF919F9146
:1006A0008F913F912F910F900FBE0F901F90189533
:1006B00026E8230F0296A11DB11DD2CF789484B5F0
:1006C000826084BD84B5816084BD85B5826085BD4E
:1006D00085B5816085BD80916E00816080936E00DC
:1006E00010928100809181008260809381008091CE
:1006F000810081608093810080918000816080937F
:1007000080008091B10084608093B1008091B0003E
:1007100081608093B00080917A00846080937A0039
:1007200080917A00826080937A0080917A00816063
:1007300080937A0080917A00806880937A0010928A
:10074000C1002091510130915201032E000C440B45
:10075000550B812C87E8982E83E9A82E83E0B82ECC
:10076000C501B4010E94720598ECC92ED12CE12C70
:10077000F12CCA01B901A70196010E9472052093CC
:100780004D0130934E0140934F0150935001209101
:10079000200130912101032E000C440B550BC501A3
:1007A000B4010E947205CA01B901A70196010E9415
:1007B000720520931C0130931D0140931E0150933C
:1007C0001F012091060130910701032E000C440BFC
:1007D000550BC501B4010E947205CA01B901A701F8
:1007E00096010E9472052093020130930301409309
:1007F00004015093050162E088E00E94A30262E0D8
:1008000089E00E94A30262E08AE00E94A30262E003
:100810008BE00E94A30262E08CE00E94A30262E0EF
:100820008DE00E94A302C0E0D0E00E940803009186
:10083000400110914101012E000C220B330B601B73
:10084000710B820B930B643F714081059105E0F0C1
:1008500080913E0190913F0118161906ACF48091E9
:100860003C0190913D01892B79F40E94110288E0AE
:100870000E94AA0090933F0180933E010E940803CA
:1008800070934101609340010E9408030091400170
:1008900010914101012E000C220B330B601B710BD8
:1008A000820B930B643F714081059105E0F08091CC
:1008B0003C0190913D0118161906ACF480913E015F
:1008C00090913F01892B79F40E94110289E00E94E6
:1008D000AA0090933D0180933C010E94080370930D
:1008E0004101609340010E94080300914001109172
:1008F0004101012E000C220B330B601B710B820B8C
:10090000930B643F714081059105E0F080913A01BD
:1009100090913B0118161906ACF480913801909122
:100920003901892B79F40E9411028AE00E94AA0001
:1009300090933B0180933A010E9408037093410118
:10094000609340010E940803009140011091410111
:10095000012E000C220B330B601B710B820B930BCF
:10096000643F714081059105E0F0809138019091DC
:10097000390118161906ACF480913A0190913B01A7
:10098000892B79F40E9411028BE00E94AA009093B7
:100990003901809338010E940803709341016093EC
:1009A00040010E9408030091400110914101012E75
:1009B000000C220B330B601B710B820B930B643FFB
:1009C000714081059105E0F08091360190913701E9
:1009D00018161906ACF48091340190913501892BD9
:1009E00079F40E9411028CE00E94AA0090933701D2
:1009F000809336010E940803709341016093400187
:100A00000E9408030091400110914101012E000C49
:100A1000220B330B601B710B820B930B643F7140F5
:100A200081059105E0F0809134019091350118160F
:100A30001906ACF48091360190913701892B79F435
:100A40000E9411028DE00E94AA00909335018093CC
:100A500034010E9408037093410160934001209784
:100A600009F4E3CE0E940000E0CE0F931F9305E04F
:100A700010E024E030E043E050E062E070E08BE41E
:100A800091E00E94D40209E010E028E030E047E065
:100A900050E066E070E08AE191E00E94D4020DE04F
:100AA00010E02CE030E04BE050E06AE070E080E0E5
:100AB00091E00E94D4021F910F91089597FB072E99
:100AC00016F4009407D077FD09D00E94970507FC23
:100AD00005D03EF4909581959F4F0895709561954E
:100AE0007F4F0895052E97FB1EF400940E94890500
:100AF00057FD07D00E94AB0507FC03D04EF40C94C1
:100B0000890550954095309521953F4F4F4F5F4F48
:100B1000089590958095709561957F4F8F4F9F4F69
:100B20000895EE0FFF1F0590F491E02D0994AA1B84
:100B3000BB1B51E107C0AA1FBB1FA617B70710F0C8
:100B4000A61BB70B881F991F5A95A9F780959095FA
:100B5000BC01CD010895A1E21A2EAA1BBB1BFD0109
:100B60000DC0AA1FBB1FEE1FFF1FA217B307E4078C
:100B7000F50720F0A21BB30BE40BF50B661F771FE4
:100B8000881F991F1A9469F76095709580959095C4
:0E0B90009B01AC01BD01CF010895F894FFCF89
:00000001FF
