:100000000C9453000C947B000C947B000C947B00AC
:100010000C947B000C947B000C947B000C947B0074
:100020000C947B000C947B000C947B000C947B0064
:100030000C947B000C947B000C947B000C947B0054
:100040000C9467040C947B000C94D7040C94B104BA
:100050000C947B000C947B000C947B000C947B0034
:100060000C947B000C947B004E414E494E495459F0
:10007000494E46CDCCCC3D0AD7233C17B7D1387773
:10008000CC2B329595E6241FB14F0A000020410089
:1000900000C84200401C4620BCBE4CCA1B0E5AAED3
:1000A000C59D7400590711241FBECFEFD8E0DEBFF5
:1000B000CDBF22E0A6EDB1E001C01D92A438B20789
:1000C000E1F711E0A0E0B1E0EAECFAE102C005904E
:1000D0000D92A63DB107D9F710E0C3E5D0E004C00A
:1000E0002197FE010E94950AC235D107C9F70E94E7
:1000F00009050C94630D0C9400003FB7F8948091AF
:10010000DD019091DE01A091DF01B091E00126B503
:10011000A89B05C02F3F19F00196A11DB11D3FBF3F
:10012000BA2FA92F982F8827BC01CD01620F711D0E
:10013000811D911D42E0660F771F881F991F4A9508
:10014000D1F70895AF92BF92CF92DF92EF92FF92D4
:100150000F931F93CF93DF936C017B018B01040FEF
:10016000151FEB015E01AE18BF08C017D10759F08B
:100170006991D601ED91FC910190F081E02DC601CD
:100180000995892B79F7C501DF91CF911F910F91C7
:10019000FF90EF90DF90CF90BF90AF900895FC015B
:1001A000538D448D252F30E0842F90E0821B930BDC
:1001B000541710F0CF96089501970895FC01918D82
:1001C000828D981761F0A28DAE0FBF2FB11D5D9685
:1001D0008C91928D9F5F9F73928F90E008958FEF27
:1001E0009FEF0895FC01918D828D981731F0828DDB
:1001F000E80FF11D858D90E008958FEF9FEF089532
:10020000FC01918D228D892F90E0805C9F4F821B95
:1002100091098F739927089581EE91E00E94000162
:1002200021E0892B09F420E0822F089580E090E0FE
:10023000892B29F00E940C0181110C940000089573
:10024000FC01A48DA80FB92FB11DA35ABF4F2C914B
:10025000848D90E001968F739927848FA689B78942
:100260002C93A089B1898C91837080648C93938D39
:10027000848D981306C00288F389E02D80818F7DDC
:1002800080830895EF92FF920F931F93CF93DF9394
:10029000EC0181E0888F9B8D8C8D98131AC0E889C2
:1002A000F989808185FF15C09FB7F894EE89FF8991
:1002B0006083E889F98980818370806480839FBF2F
:1002C00081E090E0DF91CF911F910F91FF90EF902F
:1002D0000895F62E0B8D10E00F5F1F4F0F7311273F
:1002E000E02E8C8D8E110CC00FB607FCFACFE8897A
:1002F000F989808185FFF5CFCE010E942001F1CFE1
:10030000EB8DEC0FFD2FF11DE35AFF4FF0829FB7ED
:10031000F8940B8FEA89FB8980818062CFCFCF93DD
:10032000DF93EC01888D8823B9F0AA89BB89E8891D
:10033000F9898C9185FD03C0808186FD0DC00FB6C3
:1003400007FCF7CF8C9185FFF2CF808185FFEDCF41
:10035000CE010E942001E9CFDF91CF910895FC01E9
:1003600001900020E9F73197AF01481B590BBC0100
:1003700081EE91E00C94A2008F929F92AF92BF9277
:100380000F931F93CF93DF93CDB7DEB7A1970FB62F
:10039000F894DEBF0FBECDBF19A2423008F44AE088
:1003A0008E010F5D1F4F842E912CB12CA12CA50125
:1003B00094010E94730AE62FB901CA01EA30F4F4ED
:1003C000E05DD801EE938D01232B242B252B79F7AB
:1003D00090E080E0109719F0CD010E94AF01A19646
:1003E0000FB6F894DEBF0FBECDBFDF91CF911F9146
:1003F0000F91BF90AF909F908F900895E95CE1CFEF
:10040000CF93DF930E94AF01EC0188E191E00E945D
:10041000AF018C0F9D1FDF91CF910895CF93DF9394
:10042000DC011496ED91FC916E177F0728F54115BC
:10043000510511F19F01261B370B4217530708F492
:100440009A01DB01EC0188819981E21BF30BFD83AA
:10045000EC83AF01461B570B260F371FBC01620F01
:10046000731F8A0F9B1F0E943A0DE881F9818C81CE
:100470009D81E80FF91F1082DF91CF910895CF93EE
:10048000DF93DC0114962D913C911597232B79F085
:10049000FB01CD91DC9160817181CE010E94490DFB
:1004A000009729F08C1B9D0BDF91CF9108958FEF62
:1004B0009FEFFACF0F931F93CF93DF93EC018881C7
:1004C0009981009759F02A813B812617370730F030
:1004D00081E0DF91CF911F910F9108958B016F5FA4
:1004E0007F4F0E946D0C009759F0998388831B837E
:1004F0000A832C813D81232B59F7FC011082E8CF20
:1005000080E0E7CFCF93DF93EC018881998100975A
:1005100011F00E94E40B198218821D821C821B823A
:100520001A82DF91CF910895FC018081918100971B
:1005300011F00C94E40B0895EF92FF920F931F9328
:10054000CF93DF93EC01198218821B821A821D82DD
:100550001C828617970719F1FB0100811181011593
:100560001105E9F0E480F580B7010E945A0281117B
:1005700009C0CE01DF91CF911F910F91FF90EF90B5
:100580000C948202FD82EC82B80188819981DF910E
:10059000CF911F910F91FF90EF900C94330DDF914D
:1005A000CF911F910F91FF90EF900895EF92FF92DE
:1005B0000F931F93CF93DF93EC017B011982188275
:1005C0001B821A821D821C82FB0101900020E9F728
:1005D00031978F01061B170BB8010E945A02811137
:1005E00009C0CE01DF91CF911F910F91FF90EF9045
:1005F0000C9482021D830C83B70188819981DF915D
:10060000CF911F910F91FF90EF900C94330D2F928B
:100610003F924F925F926F927F928F929F92AF9292
:10062000BF92CF92DF92EF92FF920F931F93CF93DF
:10063000DF93CDB7DEB72C970FB6F894DEBF0FBEB1
:10064000CDBFFC0124813581232B09F483C05B01DC
:100650008C0180809180FB0160817181C4010E94C6
:10066000490D009709F476C088199909019609F493
:1006700071C0B501CE0101960E949C02ED80FE8002
:1006800022E0E20EF11CB701CE0101960E945A024F
:1006900081117BC0CE0101960E9482024D815E8154
:1006A00069817A8181EE91E00E94A200CE010196DB
:1006B0000E949402B801CE0107960E949C02B501E7
:1006C000CE0107960E943F02AC014F5F5F4F70E082
:1006D00060E0CE0107960E940E026CE171E0CE014F
:1006E00001960E94D602BE016F5F7F4FCE01079632
:1006F0000E943F021C01CE0101960E9494024FEF1E
:100700005FEFB101CE0107960E940E028F8198859E
:10071000009709F447C00E9486076B017C01AC0179
:100720009B010E94430B882309F43FC08EE191E0B6
:100730000E94AF0188E191E00E94AF01A1014E5FEC
:100740005F4F70E060E0C8010E940E02CE01079684
:100750000E949402C701B6012C960FB6F894DEBF32
:100760000FBECDBFDF91CF911F910F91FF90EF9002
:10077000DF90CF90BF90AF909F908F907F906F90C1
:100780005F904F903F902F90089529813A818D81FD
:100790009E816BE171E0820F931F0E94330DFE82F8
:1007A000ED827CCFC12CD12C760146015701E89413
:1007B000B7F82FEF3FEF4FE75FE7C501B4010E94A5
:1007C000430B81110DC02FEF3FEF4FE75FE7C501EE
:1007D000B4010E94FB0818161CF482E291E0A8CF35
:1007E0002FEF3FEF4FE75FE4C701B6010E943E0BDA
:1007F00018161CF486E291E09BCF2FEF3FEF4FE7F6
:100800005FECC701B6010E94FB0887FDF3CF20E033
:1008100030E0A901C701B6010E94FB0887FF54C060
:100820006DE281EE91E00E944201C701B60190584D
:100830002AE037ED43EA5BE30E949C0A2B013C016E
:100840000E940F0B4B015C010E9400099B01AC014F
:10085000C301B2010E949B0A2B013C014AE0C50181
:10086000B4010E94BC016EE281EE91E00E9442015F
:1008700020E030E040E251E4C301B2010E9461098E
:100880002B013C010E940F0B4B01B12CA12C4AE023
:10089000C501B4010E94BC01C501B4010E94000958
:1008A0009B01AC01C301B2010E949B0A20E030E031
:1008B00040E251E40E9461090E940F0B90E080E049
:1008C0004AE00E94BC0136CFC701B601B1CF1F92EA
:1008D0000F920FB60F9211242F933F938F939F93F4
:1008E000AF93BF938091D9019091DA01A091DB0180
:1008F000B091DC013091D80123E0230F2D3758F55A
:100900000196A11DB11D2093D8018093D901909328
:10091000DA01A093DB01B093DC018091DD019091BD
:10092000DE01A091DF01B091E0010196A11DB11D92
:100930008093DD019093DE01A093DF01B093E0018D
:10094000BF91AF919F918F913F912F910F900FBECB
:100950000F901F90189526E8230F0296A11DB11D38
:10096000D2CF1F920F920FB60F9211242F933F9365
:100970004F935F936F937F938F939F93AF93BF93A7
:10098000EF93FF9381EE91E00E942001FF91EF91A0
:10099000BF91AF919F918F917F916F915F914F9197
:1009A0003F912F910F900FBE0F901F9018951F929F
:1009B0000F920FB60F9211242F938F939F93EF9363
:1009C000FF93E091F101F091F2018081E091F70154
:1009D000F091F80182FD1BC090818091FA018F5F38
:1009E0008F732091FB01821741F0E091FA01F0E052
:1009F000EF51FE4F958F8093FA01FF91EF919F91F8
:100A00008F912F910F900FBE0F901F90189580819E
:100A1000F4CFCF93DF93CDB7DEB768970FB6F894D6
:100A2000DEBF0FBECDBF789484B5826084BD84B52F
:100A3000816084BD85B5826085BD85B5816085BDD9
:100A400080916E00816080936E0010928100809191
:100A50008100826080938100809181008160809319
:100A60008100809180008160809380008091B1003E
:100A700084608093B1008091B00081608093B00069
:100A800080917A00846080937A0080917A008260FD
:100A900080937A0080917A00816080937A008091BF
:100AA0007A00806880937A001092C100E091F10191
:100AB000F091F20182E08083E091ED01F091EE018E
:100AC0001082E091EF01F091F0018FEC80831092A1
:100AD000F901E091F501F091F60186E08083E09163
:100AE000F301F091F401808180618083E091F30152
:100AF000F091F401808188608083E091F301F091AE
:100B0000F401808180688083E091F301F091F40129
:100B100080818F7D808390E0A92E90E0B92E6AE2DB
:100B200071E0CE0143960E94D602CB88DC88C114C6
:100B3000D10439F00F89188D76010115110509F0DE
:100B40007EC06AE171E0CE010D960E94D60263E399
:100B500071E0CE0101960E94D602BE016F5F7F4F09
:100B6000CE0143960E943F0210E00196A9F061E396
:100B700071E0CE0107960E94D602BE01695F7F4FE9
:100B8000CE0143960E943F0211E0019609F410E065
:100B9000CE0107960E949402CE0101960E94940213
:100BA000112309F483C163E371E0CE0101960E9431
:100BB000D602BE016F5F7F4FCE0143960E943F0277
:100BC00041E050E0BC01CE0143960E940E02CE01EE
:100BD00001960E94940265E371E0CE0101960E94A5
:100BE000D602BE016F5F7F4FCE0143960E943F0247
:100BF0008C01CE0101960E9494020F3F1F4F09F411
:100C000063C065E371E0CE0101960E94D602BE0189
:100C10006F5F7F4FCE0143960E9407030E94080B2F
:100C20006B018B01CE0101960E949402C114D10484
:100C3000E1F51092D7011092D601CDCF73013701A3
:100C40002FEF621A720AF7018081082E000C990BAF
:100C50000E94DA08892B91F7015011090C0D1D1D16
:100C6000F8018081082E000C990B0E94DA08892B6C
:100C700031F00E151F0518F001501109F1CFA80130
:100C80004F5F5F4F4E195F09588F4F8BCE14DF04B3
:100C900020F4B701C6010E942A0DEB89FC898F89D7
:100CA000988DE80FF91F10824CCF0130110529F4FF
:100CB000D092D701C092D6018ECF02301105C1F378
:100CC00003301105A9F387CF67E371E0CE010196E8
:100CD0000E94D602BE016F5F7F4FCE0143960E94F5
:100CE0000703CE0101960E94940269E371E0CE01F0
:100CF00001960E94D602BE016F5F7F4FCE014396E0
:100D00000E940703CE0101960E9494026BE371E0FA
:100D1000CE0101960E94D602BE016F5F7F4FCE01C9
:100D200043960E940703CE0101960E9494026DE350
:100D300071E0CE0101960E94D602BE016F5F7F4F27
:100D4000CE0143960E940703CE0101960E949402B1
:100D50006FE371E0CE0101960E94D602BE016F5F83
:100D60007F4FCE0143960E940703CE0101960E9459
:100D7000940261E471E0CE0101960E94D602BE01A8
:100D80006F5F7F4FCE0143960E940703CE0101960D
:100D90000E94940263E471E0CE0101960E94D602A3
:100DA000BE016F5F7F4FCE0143960E940703CE01C5
:100DB00001960E94940265E471E0CE0101960E94C2
:100DC000D602BE016F5F7F4FCE0143960E9407039C
:100DD000CE0101960E94940267E471E0CE01019673
:100DE0000E94D602BE016F5F7F4FCE0143960E94E4
:100DF0000703CE0101960E9494028091D601909142
:100E0000D7018130910509F448C008F441C082300F
:100E1000910509F445C0039709F445C00E947D007F
:100E20002B013C0180EAC82E86E8D82EEE24E394FC
:100E3000F12C0E947D006419750986099709683EA6
:100E4000734081059105A8F3E1E0CE1AD108E108CD
:100E5000F108F8EE4F0EF3E05F1E611C711CC11427
:100E6000D104E104F10429F7CE010D960E94940209
:100E7000CE0143960E949402A114B10409F44FCE0E
:100E80000E940C01882309F44ACE0E94000047CE3C
:100E900089E491E00E940002C1CF8EE591E0FACF93
:100EA00084E791E0F7CF8DE891E0F4CF88EA91E014
:100EB000F1CFE1EEF1E01382128288EE93E0A0E040
:100EC000B0E084839583A683B7838AE091E0918321
:100ED000808385EC90E09587848784EC90E0978709
:100EE000868780EC90E0918B808B81EC90E0938BF7
:100EF000828B82EC90E0958B848B86EC90E0978BD4
:100F0000868B118E128E138E148E08956627772786
:100F10000C948A07B0E0A0E0E0E9F7E00C94330A13
:100F20005C017B016115710519F0DB018D939C93C8
:100F300085010F5F1F4FF501D0818D2F90E00E943A
:100F4000DA086C01892BB9F5DD32B9F50F5F1F4F57
:100F5000D5011196DC91C1E05801F1E0AF1AB1085A
:100F600043E050E060E770E0C5010E94E308892B90
:100F700069F5680182E0C80ED11C45E050E06BE6DF
:100F800070E0C6010E94E308892B21F4680197E014
:100F9000C90ED11CE114F10419F0D701CD92DC92F5
:100FA00060E070E080E89FEFC111FFC060E070E09A
:100FB00080E89FE7FAC05801BBCFDB3229F48501F6
:100FC0000E5F1F4FF501D181C0E0C6CF43E050E076
:100FD00068E670E0C5010E94E308892BE9F0F8019A
:100FE00010E000E020E030E0A9015F01B0ED8B2EC1
:100FF0008D0E89E08815C8F19C2E689491F88C2F8D
:101000008870C2FF16C0811102C00F5F1F4F31965A
:10101000D501DC91C92DE9CFE114F10429F00E5F6F
:101020001F4FF7011183008360E070E080EC9FE7C1
:10103000BCC0882311F001501109A5E0B0E00E9466
:10104000220A9B01AC01220F331F441F551F280D9C
:10105000311D411D511D283999E93907490799E189
:101060005907A8F2C6609C2ED2CFAEEF8A1206C0F6
:10107000C3FD3CC09C2E689493F8C9CFDF7DD53466
:10108000A9F580818D3239F4C061DF01129681812A
:1010900062E070E006C0DF018B32C1F3119661E0BF
:1010A00070E080535D01A61AB70A8A30F8F4E0E8D0
:1010B000CE16ECE0DE065CF4B601660F771F660F15
:1010C000771FC60ED71ECC0CDD1CC80ED11C5D01CF
:1010D000FFEFAF1ABF0A8C9180538A30A8F1C4FF8A
:1010E00003C0D194C194D1080C0D1D1DC1FF09C0CE
:1010F000E114F10431F081E0A81AB108D701AD92F2
:10110000BC92CA01B9010E940009C370C33009F43E
:1011100090584B015C0120E030E0A9010E94FB08DF
:10112000882309F440C0CFE9D0E017FF05C011952E
:1011300001951109C7E8D0E06E01B8E1CB1AD108DA
:1011400080E2E82EF12C0FC0D501B1CFFE01259130
:101150003591459154910E191F09C501B4010E94A2
:1011600061094B015C01D501C4010E151F0574F71F
:101170002497F594E794CC16DD06A9F78A2F880FFB
:101180008B2F881F8F3F49F020E030E0A901C50177
:10119000B4010E94FB08811106C082E290E09093A6
:1011A0007F0280937E02C501B401CDB7DEB7ECE0CB
:1011B0000C944F0A91110C94CE09803219F0895089
:1011C0008550C8F70895FB01DC014150504088F07C
:1011D0008D9181341CF08B350CF4805E6591613407
:1011E0001CF06B350CF4605E861B611171F3990B7A
:1011F0000895881BFCCF0E943D0908F481E0089502
:10120000E89409C097FB3EF49095809570956195A0
:101210007F4F8F4F9F4F9923A9F0F92F96E9BB2756
:101220009395F695879577956795B795F111F8CFD2
:10123000FAF4BB0F11F460FF1BC06F5F7F4F8F4F3D
:101240009F4F16C0882311F096E911C0772321F033
:101250009EE8872F762F05C0662371F096E8862FCB
:1012600070E060E02AF09A95660F771F881FDAF722
:10127000880F9695879597F90895990F0008550F4F
:10128000AA0BE0E8FEEF16161706E807F907C0F00C
:1012900012161306E407F50798F0621B730B840B14
:1012A000950B39F40A2661F0232B242B252B21F4EE
:1012B00008950A2609F4A140A6958FEF811D811D8E
:1012C00008950E9474090C94E8090E94DA0938F024
:1012D0000E94E10920F0952311F00C94D1090C949F
:1012E000D70911240C941C0A0E94F90970F3959FE8
:1012F000C1F3950F50E0551F629FF001729FBB270D
:10130000F00DB11D639FAA27F00DB11DAA1F649FA8
:101310006627B00DA11D661F829F2227B00DA11D5B
:10132000621F739FB00DA11D621F839FA00D611DE1
:10133000221F749F3327A00D611D231F849F600D02
:10134000211D822F762F6A2F11249F5750409AF02B
:10135000F1F088234AF0EE0FFF1FBB1F661F771FB7
:10136000881F91505040A9F79E3F510580F00C9482
:10137000D1090C941C0A5F3FE4F3983ED4F38695A0
:1013800077956795B795F795E7959F5FC1F7FE2B22
:10139000880F911D9695879597F908959927882725
:1013A000089597F99F6780E870E060E008959FEFE7
:1013B00080EC089500240A941616170618060906EC
:1013C000089500240A9412161306140605060895BB
:1013D000092E0394000C11F4882352F0BB0F40F443
:1013E000BF2B11F460FF04C06F5F7F4F8F4F9F4F83
:1013F000089557FD9058440F551F59F05F3F71F005
:101400004795880F97FB991F61F09F3F79F087956B
:101410000895121613061406551FF2CF4695F1DFF4
:1014200008C0161617061806991FF1CF8695710584
:10143000610508940895E894BB2766277727CB01B8
:1014400097F908950E94640AA59F900DB49F900D8E
:10145000A49F800D911D112408952F923F924F92C9
:101460005F926F927F928F929F92AF92BF92CF9234
:10147000DF92EF92FF920F931F93CF93DF93CDB73D
:10148000DEB7CA1BDB0B0FB6F894DEBF0FBECDBFB5
:1014900009942A88398848885F846E847D848C8486
:1014A0009B84AA84B984C884DF80EE80FD800C818F
:1014B0001B81AA81B981CE0FD11D0FB6F894DEBF72
:1014C0000FBECDBFED010895A29FB001B39FC00133
:1014D000A39F700D811D1124911DB29F700D811D60
:1014E0001124911D0895A1E21A2EAA1BBB1BFD0118
:1014F0000DC0AA1FBB1FEE1FFF1FA217B307E407F3
:10150000F50720F0A21BB30BE40BF50B661F771F4A
:10151000881F991F1A9469F760957095809590952A
:101520009B01AC01BD01CF010895EE0FFF1F059097
:10153000F491E02D09945058BB27AA270E94B30AC2
:101540000C94E8090E94DA0938F00E94E10920F0C1
:1015500039F49F3F19F426F40C94D7090EF4E09562
:10156000E7FB0C94D109E92F0E94F90958F3BA1747
:10157000620773078407950720F079F4A6F50C94A9
:101580001B0A0EF4E0950B2EBA2FA02D0B01B9010A
:1015900090010C01CA01A0011124FF27591B99F0E9
:1015A000593F50F4503E68F11A16F040A22F232FF5
:1015B000342F4427585FF3CF469537952795A79545
:1015C000F0405395C9F77EF41F16BA0B620B730BEC
:1015D000840BBAF09150A1F0FF0FBB1F661F771F5D
:1015E000881FC2F70EC0BA0F621F731F841F48F412
:1015F000879577956795B795F7959E3F08F0B0CF9B
:101600009395880F08F09927EE0F97958795089581
:101610000E940F0B6894B1110C941C0A08950E944B
:10162000010A88F09F5798F0B92F9927B751B0F069
:10163000E1F0660F771F881F991F1AF0BA95C9F756
:1016400014C0B13091F00E941B0AB1E008950C94CF
:101650001B0A672F782F8827B85F39F0B93FCCF382
:10166000869577956795B395D9F73EF490958095D3
:10167000709561957F4F8F4F9F4F08950E943D0950
:1016800008F48FEF08950E943D09880B990B089587
:101690000F931F93CF93DF938230910510F482E074
:1016A00090E0E0918202F091830230E020E0B0E02F
:1016B000A0E0309799F42115310509F44AC0281BA0
:1016C000390B24303105D8F58A819B81611571056C
:1016D00089F1FB0193838283FE0111C04081518116
:1016E0000281138148175907E0F04817590799F408
:1016F000109761F012960C93129713961C933296E2
:10170000CF01DF91CF911F910F9108950093820235
:1017100010938302F4CF2115310551F0421753077E
:1017200038F0A901DB019A01BD01DF01F801C1CF49
:10173000EF01F9CF9093830280938202CDCFFE0117
:10174000E20FF31F8193919322503109398328834B
:10175000D7CF2091800230918102232B41F4209138
:101760000201309103013093810220938002209185
:101770000001309101012115310541F42DB73EB72B
:101780004091040150910501241B350BE09180022A
:10179000F0918102E217F307A0F42E1B3F0B2817EC
:1017A000390778F0AC014E5F5F4F2417350748F0DA
:1017B0004E0F5F1F5093810240938002819391935B
:1017C0009FCFF0E0E0E09CCFCF93DF930097E9F06C
:1017D000FC01329713821282A0918202B09183029F
:1017E000ED0130E020E01097A1F420813181820FDB
:1017F000931F20918002309181022817390709F048
:1018000061C0F0938102E0938002DF91CF9108954F
:10181000EA01CE17DF07E8F54A815B819E01411599
:101820005105B1F7E901FB83EA8349915991C40F4E
:10183000D51FEC17FD0761F4808191810296840F1A
:10184000951FE90199838883828193819B838A8391
:10185000F0E0E0E012968D919C9113970097B9F516
:101860002D913C911197CD010296820F931F2091EB
:101870008002309181022817390739F6309751F5E7
:101880001092830210928202B0938102A093800290
:10189000BCCFD383C28340815181840F951FC81769
:1018A000D90761F44E5F5F4F88819981480F591FB6
:1018B000518340838A819B819383828321153105E3
:1018C00009F0B0CFF0938302E09382029ECFFD0136
:1018D000DC01C0CF13821282D7CFB0E0A0E0E3E7F3
:1018E000FCE00C942F0A8C01009751F4CB010E946C
:1018F000480B8C01C801CDB7DEB7E0E10C944B0A70
:10190000FC01E60FF71F9C0122503109E217F30793
:1019100008F49DC0D901CD91DC911197C617D70766
:1019200098F0C530D10530F3CE010497861797079C
:1019300008F3C61BD70B2297C193D1936D937C9369
:10194000CF010E94E40BD6CF5B01AC1ABD0A4C015B
:101950008C0E9D1EA0918202B0918302512C412CCD
:10196000F12CE12C109731F5809180029091810249
:101970008815990509F05CC04616570608F058C04E
:101980008091000190910101009741F48DB79EB7BD
:101990004091040150910501841B950BE817F9074C
:1019A00008F055C0F0938102E0938002F901718341
:1019B0006083A0CF8D919C91119712966C90129795
:1019C00013967C901397A815B90559F56C0142E060
:1019D000C40ED11CCA14DB0420F1AC014A195B0906
:1019E000DA011296159780F06282738251834083E8
:1019F000D9016D937C93E114F10471F0D701139632
:101A0000FC93EE93129776CF22968C0F9D1FF901CF
:101A100091838083F301EFCFF0938302E0938202FE
:101A200069CF4816590608F42C017D01D3019ACFDD
:101A3000CB010E94480B7C01009749F0AE01B80130
:101A40000E942A0DC8010E94E40B870153CF10E0C9
:101A500000E050CFFB01DC0102C001900D9241502B
:101A60005040D8F70895FB01DC0101900D92002051
:101A7000E1F70895FB01DC014150504048F001902E
:101A80000D920020C9F701C01D9241505040E0F76F
:101A90000895FB0151915523A9F0BF01DC014D913F
:101AA00045174111E1F759F4CD010190002049F0AB
:101AB0004D9140154111C9F3FB014111EFCF81E078
:0A1AC00090E001970895F894FFCF1D
:101ACA00000084028000000000004201A200CF0052
:101ADA008F010001DE00F2000D0A003A20006E615B
:101AEA006E00696E66006F76660024463132372EC4
:101AFA00303B002400470050004D00530058005965
:101B0A00005A00460049004A004D6F76656D656EC1
:101B1A007420747970653A205241504944004D6FDF
:101B2A0076656D656E7420747970653A204C494EFD
:101B3A00454152004D6F76656D656E7420747970FB
:101B4A00653A20434C4F434B57495345004D6F76F6
:101B5A00656D656E7420747970653A20434F554EF1
:101B6A005445525749534500546865206D6573734F
:101B7A0061676520646964206E6F74207365656DA2
:101B8A0020746F2062652073656E742070726F70A6
:061B9A0065726C792E005B
:00000001FF
